:100000000C947A000C94400C0C94190C0C94A200E3
:100010000C94A2000C94A2000C94A2000C94A200D8
:100020000C94A2000C94A2000C94A2000C94A200C8
:100030000C94A2000C94A2000C94A2000C94A200B8
:100040000C94CF0B0C94A2000C948D0C0C94670CA8
:100050000C94A2000C94A2000C94A2000C94A20098
:100060000C94A2000C94A2000000000024002700C1
:100070002A0000000000250028002B0000000008D6
:10008000000201000003040700000000000000005F
:1000900000000000230026002900CDCCCC3D0AD76B
:1000A000233C17B7D13877CC2B329595E6241FB176
:1000B0004F0A000020410000C84200401C4620BCFE
:1000C000BE4CCA1B0E5AAEC59D740404040404043D
:1000D00004040202020202020303030303030102F7
:1000E00004081020408001020408102001020408C6
:1000F0001020BF0C11241FBECFEFD8E0DEBFCDBF54
:1001000023E0A6E3B2E001C01D92A330B207E1F7FD
:1001100012E0A0E0B1E0E6E5F2E302C005900D9246
:10012000A633B107D9F710E0CAE7D0E004C02197A1
:10013000FE010E943117C937D107C9F70E940C0D83
:100140000C9429190C940000CF92DF92EF92FF9249
:10015000CF93DF93B091F302A0E08111AB2F809198
:10016000F40290E0880F991FAC0140575F4FC09098
:10017000F902D090FA02E090FB02F090FC0230E02D
:1001800020E0FA01C591D491E881B90190E080E0C6
:10019000EB23EA130AC02F5F3F4F6C157D058E05D8
:1001A0009F0578F36FEF7FEFCB01DF91CF91FF9049
:1001B000EF90DF90CF90089590E0FC01E458FF4F5E
:1001C0002491FC01E252FF4F3491FC01E653FF4FB2
:1001D000E491EE23C9F0222339F0233001F1A8F491
:1001E000213019F1223029F1F0E0EE0FFF1FEE5817
:1001F000FF4FA591B4918FB7F894EC91611126C08F
:1002000030953E233C938FBF08952730A9F02830C6
:10021000C9F0243049F7809180008F7D03C0809120
:1002200080008F7780938000DFCF84B58F7784BD87
:10023000DBCF84B58F7DFBCF8091B0008F7780932B
:10024000B000D2CF8091B0008F7DF9CF3E2BDACFB6
:10025000CF93DF9390E0FC01E252FF4F249186534D
:100260009F4FFC0184918823C9F090E0880F991F6B
:10027000FC01E859FF4FA591B491FC01EE58FF4FE6
:10028000C591D49161110DC09FB7F8948C912095C0
:1002900082238C938881282328839FBFDF91CF916D
:1002A0000895623051F49FB7F8943C91822F809565
:1002B00083238C93E8812E2BEFCF8FB7F894EC91AA
:1002C0002E2B2C938FBFEACF8E50806480937C00BE
:1002D00080917A00806480937A0080917A0086FD14
:1002E000FCCF809178009091790008953FB7F89401
:1002F00080914B0290914C02A0914D02B0914E0220
:1003000026B5A89B05C02F3F19F00196A11DB11D70
:100310003FBFBA2FA92F982F8827BC01CD01620FAC
:10032000711D811D911D42E0660F771F881F991F67
:100330004A95D1F708958F929F92AF92BF92CF9234
:10034000DF92EF92FF924B015C010E9476016B01FC
:100350007C010E9476016C197D098E099F09683E17
:10036000734081059105A8F321E0821A9108A10844
:10037000B10888EEC80E83E0D81EE11CF11C811480
:100380009104A104B10429F7FF90EF90DF90CF9082
:10039000BF90AF909F908F9008952FB7F894609181
:1003A0004702709148028091490290914A022FBF02
:1003B0000895CF92DF92EF92FF920F931F93CF9306
:1003C000DF93CDB7DEB7C054D1400FB6F894DEBF8F
:1003D0000FBECDBF0E94CD010091F5021091F60233
:1003E0002091F7023091F8026B017C01C01AD10A0A
:1003F000E20AF30A97018601003D17402105310505
:1004000090F48091FD02C05CDE4F0FB6F894DEBF21
:100410000FBECDBFDF91CF911F910F91FF90EF9055
:10042000DF90CF9008956093F5027093F602809369
:10043000F7029093F8021092F0021092EF021092DD
:10044000EE021092ED021092EC0262E08091F10255
:100450000E94280161E070E080E090E00E949B0132
:1004600061E08091F1020E94280160E08091F10238
:100470000E94DC008091F2028551823020F58BE2EF
:1004800091E10197F1F762E08091F1020E94280169
:100490008091FE0290E08230910538F0880F991F1C
:1004A000880F991F05970197F1F7F89480E00E9453
:1004B000A4006F3F7F4F8F4F9F4F61F41092FD025A
:1004C000789480E0A0CF64E170E080E090E00E944A
:1004D0009B01D9CF81E00E94A4006F3F7F4F8F4FD7
:1004E0009F4F61F38E010F5F1F4F6E012FEBC21AFA
:1004F0002EEFD20A780180E00E94A400F701608309
:1005000071838283938381E00E94A400F701648356
:10051000758386839783F8E0EF0EF11CEC14FD04DD
:1005200051F7789430E020E0F801C080D180E2807B
:10053000F3804481558166817781FFEFCF16DF0616
:10054000EF06FF0631F04F3F8FEF58076807780737
:1005500019F41092FD02B5CFF90183E0F595E79506
:100560008A95E1F7E451FD4F8081880FC416D506C6
:10057000E606F70610F180832F5F3F4F085F1F4F9D
:100580002832310589F64091F0022091EC028091E9
:10059000ED02280F3327331F8091EE02280F311D03
:1005A0008091EF02820F932F911D9927481719060A
:1005B00081F681E08093FD0226CF8160DCCFCF926F
:1005C000DF92EF92FF920F931F930E94CD01009153
:1005D00036021091370220913802309139026B01B6
:1005E0007C01C01AD10AE20AF30A9701860103339B
:1005F00011052105310550F020913E0230913F0256
:100600002F5F3F4F30933F0220933E0260933602AC
:100610007093370280933802909339021F910F91A3
:10062000FF90EF90DF90CF900895CF92DF92EF92FE
:10063000FF920F931F930E94CD0100913A021091F7
:100640003B0220913C0230913D026B017C01C01ABB
:10065000D10AE20AF30A9701860103331105210545
:10066000310550F020914002309141022F5F3F4F01
:10067000309341022093400260933A0270933B0210
:1006800080933C0290933D021F910F91FF90EF9059
:10069000DF90CF9008950895AF92BF92CF92DF92EE
:1006A000EF92FF920F931F93CF93DF936C017B0127
:1006B0008B01040F151FEB015E01AE18BF08C017B8
:1006C000D10759F06991D601ED91FC910190F0812B
:1006D000E02DC6010995892B79F7C501DF91CF91EE
:1006E0001F910F91FF90EF90DF90CF90BF90AF9050
:1006F0000895FC01538D448D252F30E0842F90E028
:10070000821B930B541710F0CF960895019708950C
:10071000FC01918D828D981761F0A28DAE0FBF2FD5
:10072000B11D5D968C91928D9F5F9F73928F90E02B
:1007300008958FEF9FEF0895FC01918D828D98179A
:1007400031F0828DE80FF11D858D90E008958FEFD7
:100750009FEF0895FC01918D228D892F90E0805CA0
:100760009F4F821B91098F73992708958FE492E020
:100770000E94AA0321E0892B09F420E0822F08952A
:1007800080E090E0892B29F00E94B60381110C943F
:1007900000000895FC01A48DA80FB92FB11DA35A24
:1007A000BF4F2C91848D90E001968F739927848F91
:1007B000A689B7892C93A089B1898C9183708064B4
:1007C0008C93938D848D981306C00288F389E02D55
:1007D00080818F7D80830895EF92FF920F931F9306
:1007E000CF93DF93EC0181E0888F9B8D8C8D9813E4
:1007F0001AC0E889F989808185FF15C09FB7F894F0
:10080000EE89FF896083E889F9898081837080643B
:1008100080839FBF81E090E0DF91CF911F910F9186
:10082000FF90EF900895F62E0B8D10E00F5F1F4F95
:100830000F731127E02E8C8D8E110CC00FB607FCA4
:10084000FACFE889F989808185FFF5CFCE010E9432
:10085000CA03F1CFEB8DEC0FFD2FF11DE35AFF4FD3
:10086000F0829FB7F8940B8FEA89FB8980818062C0
:10087000CFCFCF93DF93EC01888D8823B9F0AA897D
:10088000BB89E889F9898C9185FD03C0808186FD4B
:100890000DC00FB607FCF7CF8C9185FFF2CF80819A
:1008A00085FFEDCFCE010E94CA03E9CFDF91CF9142
:1008B00008956F3FA9F0E62FE295EF7044E0E49FC2
:1008C00090011124DC01ED91FC91E20FF31F6F7098
:1008D00082819381B6E06B9F800D911D1124089554
:1008E00090E080E00895BF92CF92DF92EF92FF9266
:1008F0000F931F93CF93DF938A01F12CE12C452BAB
:1009000039F17F77DC011396ED90FC90C62FD72F3D
:10091000E114F10441F1D70113962C9113972C1790
:100920001D0659F4F8011496C00FD11FCE17DF072A
:1009300041F031912D913217C9F3F701E080F18038
:10094000E5CFD70112968C9112978F5F12968C93F8
:10095000C701DF91CF911F910F91FF90EF90DF9032
:10096000CF90BF9008956C01CF3FD10509F048F5B5
:10097000BE016B5F7F4F6C177D0718F1FC01808112
:100980009181DC01ED91FC910190F081E02D0995C0
:10099000DC01892BB1F01396CC93139781E012966A
:1009A0008C931297CD010496A8014C0F5D1F04177C
:1009B000150759F0F80121918F01FC012193CF0116
:1009C000F6CF81E0F6018283C3CFCA0FDB1F1C8202
:1009D000F6018381948111969C938E93B483A383B3
:1009E0007D01B6CFDC0152969C915297915084E0E4
:1009F000989F900111245096ED91FC91E20FF31F06
:100A0000228133812115310579F041818081481798
:100A100058F481E0840F818386E0489F200D311DCA
:100A200011242115310521F460E070E08FEF089565
:100A3000B901892F8295807F840F0895AF92BF926C
:100A4000CF92DF92EF92FF920F931F93CF93DF939A
:100A5000EC018B018C8180FF2CC0A881B981FB0146
:100A60008381948130E020E0009719F1A817B9073D
:100A700009F041C0F8014081518112969C91129772
:100A8000915012969C931297911113C08D919C9145
:100A900011972115310561F1F90191838083FA01E4
:100AA00080819181FC0122813381BD01CA01F9015C
:100AB00009958C81807631F1209721F1F8805801D9
:100AC000F5E1AF0EB11C8FEFF816D1F06F2DC50117
:100AD0000E9459046C01FC01E580B8010E941E05CA
:100AE000F801818DF6018083F801F18EFE2CEBCFA9
:100AF00094838383D4CF9C01FC0180819181B4CF06
:100B0000F882F9821C82DF91CF911F910F91FF90A3
:100B1000EF90DF90CF90BF90AF900895CB010C94F1
:100B2000D3170F931F93CF93DF93EC0188819981A3
:100B3000009759F02A813B812617370730F081E072
:100B4000DF91CF911F910F9108958B016F5F7F4FC0
:100B50000E945C18009759F0998388831B830A834D
:100B60002C813D81232B59F7FC011082E8CF80E0D6
:100B7000E7CFCF92DF92EF92FF920F931F93CF9325
:100B8000DF938C01DC019296ED91FC91E80FF91F47
:100B900012826C01B2E0CB0ED11CC114D10449F118
:100BA000F60101900020E9F73197EC19FD09F1F009
:100BB000DC01ED90FC90D7011496CD91DC91CE0F25
:100BC000DF1FBE01C7010E949105882391F0F70144
:100BD0002081318184819581B601820F931F0E940B
:100BE0002219D7011596DC93CE931497F80113A21E
:100BF00012A2D80192968D919C91DF91CF911F9175
:100C00000F91FF90EF90DF90CF9008951F93CF93B7
:100C1000DF93EC01162F8AA19BA101968097B8F46F
:100C20008AA19BA19C012F5F3F4F3BA32AA38C0F5E
:100C30009D1FFC01128321E030E08CA19DA1820F59
:100C4000931F9DA38CA3DF91CF911F910895CE0197
:100C50000E94B905892B21F330E020E0EECFBF924E
:100C6000CF92DF92EF92FF920F931F93CF93DF9378
:100C7000EC016A018B017B01E40EF51EE016F10622
:100C8000D1F0F801B1908F018AA19BA101968097C4
:100C900060F48AA19BA19C012F5F3F4F3BA32AA335
:100CA0008C0F9D1FFC01B282E9CFCE010E94B905D5
:100CB000892B79F3E3CF4CA15DA14C0D5D1D5DA3A4
:100CC0004CA3DF91CF911F910F91FF90EF90DF9098
:100CD000CF90BF9008958F929F92AF92BF92CF9284
:100CE000DF92EF92FF920F931F93CF93DF93CDB7D5
:100CF000DEB766970FB6F894DEBF0FBECDBF6C01AE
:100D00008E01095E1F4F78018AE0882E912CA12C5C
:100D1000B12CCB01BA01A50194010E940F17942FA9
:100D2000852F605DF80162938F01A901692F782FEB
:100D3000411551056105710561F7A7014E1B5F0B58
:100D4000BF01C6010E942F0666960FB6F894DEBF5B
:100D50000FBECDBFDF91CF911F910F91FF90EF900C
:100D6000DF90CF90BF90AF909F908F900895FB0140
:100D700001900020E9F73197AF01461B570B0C9407
:100D80002F06CF92DF92EF92FF920F931F93CF9394
:100D9000DF938C016B017A0162E20E940606E60194
:100DA000EC0CFD1CEC16FD0699F06991E8E6F1E00B
:100DB000D480DD20C9F0329683816813F9CF6CE5C9
:100DC000C8010E9406066D2DC8010E940606EACFE2
:100DD00062E2C801DF91CF911F910F91FF90EF90D8
:100DE000DF90CF900C9406066111EECF6BE771E0B7
:100DF000C8010E94B706D6CF2F923F924F925F92C2
:100E00006F927F928F929F92AF92BF92CF92DF921A
:100E1000EF92FF920F931F93CF93DF93CDB7DEB77F
:100E20006B970FB6F894DEBF0FBECDBF7C018B0170
:100E3000DC0114968C9114978A3009F4A0C2F0F466
:100E4000843009F479C268F4833009F490C262E80E
:100E500071E0C8010E94B706D80194968D919C91CB
:100E600029C2853009F47BC2863089F78C9167E806
:100E700071E0811155C06CE871E052C08E3009F408
:100E800040C0C8F48C3019F7CD90DD90ED90FC9007
:100E9000B701A601F7FE0BC06DE2C8010E9406066D
:100EA00044275527BA014C195D096E097F09C8010D
:100EB0000E946B06FCC1803209F415C2803439F6F9
:100EC0006BE5C8010E940606D701FC90BFEFFB1638
:100ED00009F4E9C1F80186A197A16F2D45960E94FA
:100EE00059047C01B8010E94FC06D7011596FC90BC
:100EF000BFEFFB1609F4D7C16CE2C8010E940606D9
:100F0000E5CFF70180809180A280B380A501940194
:100F1000C501B4010E942B14882331F062E871E00E
:100F2000C8010E94B706C3C120E030E0A901C50195
:100F3000B4010E942B14882371F0A5019401C5010E
:100F4000B4010E9487159B01AC01C501B4010E9448
:100F50002B14882319F320E030E0A901C501B40166
:100F60000E942B1487FF08C06DE2C8010E9406068C
:100F7000B7FAB094B7F8B09420E836E948E15BE4FA
:100F8000C501B4010E949B1687FD83C074E1C72E82
:100F9000D12CE0E2EE2EF12C312C212CF601EE5476
:100FA000FF4F6591759185919491A50194010E94DF
:100FB0002B1418167CF0F601E656FF4F259135915B
:100FC00045915491C501B4010E9491144B015C01FB
:100FD0002E0C3F1CF594E794F4E0CF1AD1082CEFC7
:100FE000C2162FEFD206D1F63FEF3F8B20E030E064
:100FF000A901C501B4010E949B1618160CF051C03E
:101000002CEA35EC47E257E3C501B4010E942B14EA
:1010100018160CF446C0AF89B4E0AB02C00111242D
:10102000D12CC12CFC01E656FF4F2F019C012E5400
:101030003F4F39013F893F3F09F433C0F201EC0DC6
:10104000FD1D659175918591949120E030E040E21D
:1010500051E40E949114A50194010E949B16181658
:101060007CF4F301EC0DFD1D2591359145915491D2
:10107000C501B4010E9491144B015C012E183F0878
:10108000F594E7948F8981508F8B94E0C91AD10829
:10109000D1CF50E2E52EF12C85E08F8B312C212C25
:1010A000A5CFC501B4010E946C166B017C012B0118
:1010B0003C0180E492E4AFE0B0E0888F998FAA8F82
:1010C000BB8F96E09F8BAAE04A165104610471041D
:1010D000E0F0688D798D8A8D9B8D2AE030E040E0CC
:1010E00050E00E940F17288F398F4A8F5B8FBF897E
:1010F000B150BF8BC301B2012AE030E040E050E0C4
:101100000E940F1729013A01DECFC701B6010E94E4
:1011100030149B01AC01C501B4010E9486154B013E
:101120005C01688D798D8A8D9B8D0E9430149B01A6
:10113000AC01C501B4010E9491142B013C010E9435
:101140006C164B015C010E9430149B01AC01C30181
:10115000B2010E9486159B01AC010E9487150E9476
:101160006C16860E971EA81EB91E888D998DAA8DA5
:10117000BB8D88169906AA06BB06C0F09FEFC91A58
:10118000D90AE90AF90A2114310439F1AAE0CA1688
:10119000D104E104F10408F1BFEF2B1A3B0A812CC2
:1011A000912C5401C12CD12C7601C3942AE0422EFB
:1011B000512C612C712CC501B401A30192010E9434
:1011C0000F17672B682B692B61F4EF891E164CF4FF
:1011D00049015A01E150EF8BEECF812C912C540143
:1011E000E5CFB701A601C8010E946B06FF89FF2366
:1011F00091F16E0121E1C20ED11CF88F76019AE0C7
:10120000492E512C612C712C388D3150388F3F3F35
:1012100069F0C501B401A30192010E940F17605D3E
:10122000D6016E936D0149015A01EECFBF898B2F14
:1012300090E0BC0160957095F701E81BF90B3197C0
:101240008EE2808344275527461B570B6E0D7F1D6A
:10125000C8010E942F062114310449F165E6C80136
:101260000E940606710137FE07C06DE2C8010E94A8
:101270000606F194E194F108FE0177969F018AE059
:10128000C82ED12CC701B6010E94FB16805D829347
:101290007B01672BB9F7A9014E1B5F0BBF01C8018A
:1012A0000E942F0604C06DE5C8010E940606F801E1
:1012B00084A195A16B960FB6F894DEBF0FBECDBF8B
:1012C000DF91CF911F910F91FF90EF90DF90CF9022
:1012D000BF90AF909F908F907F906F905F904F9056
:1012E0003F902F9008956BE7C8010E940606D70132
:1012F000FC90EE24E394BB24B394BFEFFB16D1F033
:10130000F80186A197A16F2D45960E9459046C01A2
:10131000B8010E94FC06D6011596FC90BFEFFB16A3
:1013200039F06AE3E11001C06CE2C8010E940606D0
:10133000EB24E3CF6DE7B8CF6D917C9150E040E0B6
:101340006115710541F0FB0101900020E9F731972B
:10135000AF01461B570BC8010E94C106A8CFED91F3
:10136000FC91438150E0BF016C5F7F4FF4CFED9162
:10137000FC91438150E0BF016C5F7F4F90CF4D9156
:101380005D916D917C9193CDCB01BA010C945C1869
:10139000BF92CF92DF92EF92FF920F931F93CF9362
:1013A000DF93EC01198D1F3F81F0612F45960E945C
:1013B0005904FC018081898F309709F477C0148229
:1013C0008FEF8583BF01812F76C06C0135E0C30E9E
:1013D000D11CE880F9808F89882341F0C6010E94E2
:1013E000F204E62FF72F182F309749F71F89988DB1
:1013F000191324C0103109F459C0110F6D897E8969
:10140000D701ED91FC91B4E01B9FA0011124C616F9
:10141000D70609F044C00190F081E02DBA01C70160
:101420000995009709F442C020E1F601DC01019022
:101430000D922A95E1F79E8B8D8B188F0D891E8951
:101440008F8921E0280F2F8BE4E08E9FC0011124AB
:10145000080F191F90E1B92E203111F48FE0B82E3A
:10146000F6E0BF9EB0011124D701ED91FC910190EF
:10147000F081E02DC7010995F80193838283892BC0
:1014800009F4B12CD801BC9211961C92012B71F079
:10149000C6010E94F204E62FF72F182F8DCF04808B
:1014A000F581E02DC7010995009729F681E08A832F
:1014B00060E070E08FEFDF91CF911F910F91FF906F
:1014C000EF90DF90CF90BF9008952F923F924F9270
:1014D0005F926F927F928F929F92AF92BF92CF92C4
:1014E000DF92EF92FF920F931F93CF93DF93EC0164
:1014F0008A0141155105B1F410E000E0C801DF9107
:10150000CF911F910F91FF90EF90DF90CF90BF9000
:10151000AF909F908F907F906F905F904F903F9093
:101520002F9008958C81811131C080E28C832097A7
:1015300019F38FEF8883898379013B01452E542E5F
:10154000690185E1C80ED11C6881C6010E94590459
:10155000FC0133243A94892B09F035805301E89437
:10156000B7F8222423944501800E911E309799F1FB
:10157000222009F466C08481843071F0853009F43A
:1015800053C090E080E0B0E0A0E015C0803209F0E8
:10159000B3CF209789F6B0CFA081B18190E080E0F1
:1015A000109741F0FD0101900020E9F73197CF013C
:1015B0008A1B9B0B9F77A816B90609F042C0F80159
:1015C0008E169F06C9F5632DC6010E9459048C0131
:1015D000892B09F093CFC7010E94C809882E5B01AF
:1015E000672B09F489CFC7010E94C809982E962F4E
:1015F000092F172F0115110509F47ECF772D77FEDE
:101600002CC084E0F5018483852D942D9183808303
:10161000F501958269816F3F71F1C6010E945904FD
:10162000FC01858299826ACF0190F081E02DDF0173
:101630001496838190E0BFCF91918D91981709F412
:10164000BFCFE1E02E26632DC6010E945904FC01A4
:10165000892B09F48BCF358089CF7F77452D542D89
:10166000662DC7010E947304009709F445CF25E059
:10167000F5012483CBCF8882D5CFAF92BF92CF9292
:10168000DF92EF92FF920F931F93CF93DF935C0152
:101690008B01DC01ED90FC901197E7016A9659F0FF
:1016A00012964D915D916D917C9115979701CE01A8
:1016B0000E94650AEC01F801C080D180C114D104F8
:1016C000F1F0F60101900020E9F731978F010C1934
:1016D0001D092097D9F4D501ED91FC9180E0309758
:1016E00019F0828191E08927DF91CF911F910F91AD
:1016F000FF90EF90DF90CF90BF90AF90089520972C
:1017000051F3B701CE010E941E05E5CFB701CE010E
:101710000E941E05712F7F777F77A601602FC7017A
:101720000E9473040097B9F225E02C839983888383
:10173000D2CFCF92DF92EF92FF920F931F93CF936E
:10174000DF93FC0100811181C8014A9619F17B01E8
:10175000428153816481758198010E94650AEC0180
:101760000097C1F0F701C080D180E280F380B8011A
:101770000E941E058EE08C83C882D982EA82FB8299
:1017800081E0DF91CF911F910F91FF90EF90DF905B
:10179000CF90089580E0F5CFCB010C9437171F92BE
:1017A0000F920FB60F9211242F933F938F939F9315
:1017B000AF93BF938091470290914802A091490254
:1017C000B0914A023091460223E0230F2D3758F59D
:1017D0000196A11DB11D209346028093470290936C
:1017E0004802A0934902B0934A0280914B02909123
:1017F0004C02A0914D02B0914E020196A11DB11D67
:1018000080934B0290934C02A0934D02B0934E02F2
:10181000BF91AF919F918F913F912F910F900FBEEC
:101820000F901F90189526E8230F0296A11DB11D59
:10183000D2CF1F920F920FB60F9211242F933F9386
:101840004F935F936F937F938F939F93AF93BF93C8
:10185000EF93FF93E0910201F09103010995FF914D
:10186000EF91BF91AF919F918F917F916F915F9118
:101870004F913F912F910F900FBE0F901F90189591
:101880001F920F920FB60F9211242F933F934F93F5
:101890005F936F937F938F939F93AF93BF93EF93D8
:1018A000FF93E0910001F09101010995FF91EF9103
:1018B000BF91AF919F918F917F916F915F914F9168
:1018C0003F912F910F900FBE0F901F9018951F9270
:1018D0000F920FB60F9211242F933F934F935F9364
:1018E0006F937F938F939F93AF93BF93EF93FF93E8
:1018F0008FE492E00E94CA03FF91EF91BF91AF91F4
:101900009F918F917F916F915F914F913F912F9117
:101910000F900FBE0F901F9018951F920F920FB649
:101920000F9211242F938F939F93EF93FF93E09146
:101930005F02F09160028081E0916502F0916602A1
:1019400082FD1BC09081809168028F5F8F73209110
:101950006902821741F0E0916802F0E0E15BFD4F1F
:10196000958F80936802FF91EF919F918F912F91B6
:101970000F900FBE0F901F9018958081F4CFEFE469
:10198000F2E01382128288EE93E0A0E0B0E084835C
:101990009583A683B7838AE591E09183808385EC64
:1019A00090E09587848784EC90E09787868780EC29
:1019B00090E0918B808B81EC90E0938B828B82EC1A
:1019C00090E0958B848B86EC90E0978B868B118EC4
:1019D000128E138E148EACEEB2E085E015968C93C9
:1019E00015978BE016968C931697E3EEF0E0E49152
:1019F0001796EC931797EFECF0E0E4911896EC93C0
:101A0000189740E85EE360E070E01D964D935D93AB
:101A10006D937C9350970895CF93DF93CDB7DEB746
:101A2000C850D1400FB6F894DEBF0FBECDBF78943A
:101A300084B5826084BD84B5816084BD85B58260D3
:101A400085BD85B5816085BD80916E008160809384
:101A50006E001092810080918100826080938100ED
:101A600080918100816080938100809180008160FD
:101A7000809380008091B10084608093B100809158
:101A8000B00081608093B00080917A008460809380
:101A90007A0080917A00826080937A0080917A0047
:101AA000816080937A0080917A00806880937A00C8
:101AB0001092C100E0915F02F091600282E08083A9
:101AC000E0915B02F0915C021082E0915D02F09186
:101AD0005E028FEC808310926702E0916302F091C6
:101AE000640286E08083E0916102F091620280816D
:101AF00080618083E0916102F09162028081886060
:101B00008083E0916102F09162028081806880832D
:101B1000E0916102F091620280818F7D808362E0BA
:101B20008091F1020E9428010E94CD01605D774002
:101B3000810991096093F5027093F6028093F70290
:101B40009093F80287E38093FE0260E081E10E94B7
:101B5000280161E088E00E94280160E088E00E949E
:101B6000DC0010923F0210923E021092410210924D
:101B7000400262E082E00E9428018FED92E09093A3
:101B8000010180930001809169008C7F82608093C5
:101B90006900E89A62E083E00E94280185E193E011
:101BA0009093030180930201809169008C6080937F
:101BB0006900E99A8E010F521F4FC8010596C95F4F
:101BC000DE4F99838883C750D1401E0191EF290EC3
:101BD000311C0E94CD01C0904202D0904302E0909F
:101BE0004402F09045026C197D098E099F09603608
:101BF0007A4E8F4F9F4F08F415C661E088E00E942F
:101C0000DC0068EE73E080E090E00E949B010E949F
:101C1000CD016093420270934302809344029093FB
:101C200045020E94D901882341F08091F2028C3054
:101C300009F466C038F48B30F1F060E070E080ECBD
:101C40009FE741C085518230C0F7F090EE026F2DC2
:101C500070E0762F662766277F778091EF02682BEA
:101C600090E080E00E9430142DEC3CEC4CEC5DE305
:101C70000E94911461C06091EE0270E090E080E0FB
:101C80000E9430144B015C01F090EF02F7FE0AC095
:101C9000AC019B0160E070E080E89FEB0E9486153C
:101CA0004B015C016F2D6F7070E090E080E00E944E
:101CB00032142DEC3CEC4CEC5DE30E949114A50138
:101CC00094010E948715C550DF4F688379838A830A
:101CD0009B83CB5FD0400E94D901882351F0809133
:101CE000F2028B3030F08D3058F18551823008F49B
:101CF000BAC4C12CD12C90ECE92E9FE7F92E3EC03E
:101D0000F090EE026F2D70E090E080E00E943014C1
:101D10004B015C016091EF026F7070E090E080E039
:101D20000E9432142DEC3CEC4CEC5DE30E949114CB
:101D3000A50194010E948715F7FEC5CF9058C3CF27
:101D40006091ED0270E090E080E00E9432142DEC92
:101D50003CEC4CEC5DE30E9491146B017C016091C2
:101D6000EC0270E090E080E00E9432149B01AC0134
:101D7000C701B6010E9487156B017C01C950DF4F76
:101D8000C882D982EA82FB82C75FD04026E636E667
:101D900046EE5FE3C550DF4F688179818A819B8180
:101DA000CB5FD0400E94911420E030E040E052E44C
:101DB0000E9487154B015C0120E030E048E852E4C6
:101DC0000E9486152AE939E949E95FE30E949114E6
:101DD0002B013C0120E030E044E752E4C501B401AE
:101DE0000E9487159B01AC01C301B2010E948715B7
:101DF0002B013C0122E133E840EC5DE3C701B60171
:101E00000E9491149B01AC01C301B2010E9487158D
:101E100020E030E040E05FE30E9491142B013C01A0
:101E200020E030E04EE952E40E949B1618160CF0B8
:101E30002FC1A5019401C501B4010E949114C150A4
:101E4000DF4F688379838A839B83CF5FD040A7016C
:101E50009601C701B6010E949114CD5FDE4F6883E1
:101E600079838A839B83C350D14021E133E243E0ED
:101E700050E4C501B4010E94911429E134E849E21B
:101E800052E40E9486152B013C0126E13BE442E22C
:101E900051E4C701B6010E9491149B01AC01C3013A
:101EA000B2010E9487152B013C0128E436E246E688
:101EB0005EEBC501B4010E949114A70196010E9436
:101EC00091149B01AC01C301B2010E9487152B0143
:101ED0003C0120EE3FE040EE5BEBC150DF4F6881FC
:101EE00079818A819B81CF5FD0400E9491149B01B0
:101EF000AC01C301B2010E9487152B013C0128EF00
:101F000037E840E65DEBCD5FDE4F688179818A81FD
:101F10009B81C350D1400E9491149B01AC01C3012D
:101F2000B2010E9487152B013C012CEA3DE041EAF9
:101F30005AE3C150DF4F688179818A819B81CF5FED
:101F4000D0400E949114A70196010E9491149B0118
:101F5000AC01C301B2010E9487152B013C0128ECA2
:101F60003FE84FE55AE3C501B4010E949114CD5FEB
:101F7000DE4F288139814A815B81C350D1400E9464
:101F800091149B01AC01C301B2010E9487152B0182
:101F90003C0121EF3BE845E056EBC150DF4F688143
:101FA00079818A819B81CF5FD0400E949114CD5F5F
:101FB000DE4F288139814A815B81C350D1400E9424
:101FC00091149B01AC01C301B2010E9487152B0142
:101FD0003C0120E030E040E551E4C701B6010E9439
:101FE0002B1487FF5BC320E030E040EA52E4C501D8
:101FF000B4010E949B1687FD51C320E030E040EE03
:1020000052E4C501B4010E942B1418160CF417C435
:10201000A701960160E070E080E591E40E948615DA
:1020200020E030E040E85EE30E9491146B017C0107
:1020300020E030E04EEB52E4C501B4010E94861569
:102040004B015C0120E030E0A9010E949B161816AC
:102050000CF01BC3A501940160E070E088E891E4F6
:102060000E9486152EE33DEE40E75DE30E94911449
:102070000E94A6169B01AC01C701B6010E949114F3
:102080009B01AC01C301B2010E9486152B013C01EA
:1020900084E091E0F801918380831282148213829C
:1020A000C95FDE4F88819981C750D140968B858B5F
:1020B000178A84E0808F8FEF818F168E878F1A8327
:1020C00009838AEC91E09C838B838BE08D838E81E6
:1020D000807880688E83BE0165507F4FCE01019667
:1020E0000E94990B1A83098386ED91E09C838B8370
:1020F00088E08D838E81807880688E83BE016950F0
:102100007F4FCE0101960E94990B20E030E040E025
:1021100052E4C301B2010E94861526E838E34EE07E
:102120005FE30E94911420E030E048EC52E40E940A
:1021300091146B017C0120E030E0A9010E949B1604
:1021400020E030E040E05FE387FDF3C2C701B60165
:102150000E9487150E9465160E94321420E030E02C
:1021600048EC52E40E94F31525966CAF7DAF8EAF1C
:102170009FAF25971A8309838FED91E09C838B8312
:1021800089E08D838E81807880688E83BE016F5B4D
:102190007F4FCE0101960E94990B8EE00E94640150
:1021A000BC01990F880B990B0E94321420E030E09B
:1021B00040EA50E40E94911420E030E040E85AE305
:1021C0000E9491142B013C0180E4ECE0F1E0DE017F
:1021D000119601900D928A95E1F7DE0111966D013D
:1021E000F12CE12CF60121913191419151916F0136
:1021F000C301B2010E9486154B015C0120E030E072
:10220000A9010E949B1618160CF098C22DEC3CEC0C
:102210004CE45DE3C501B4010E942B1487FF99C211
:10222000B701FF0C880B990B0E94321420E030E0BC
:1022300044EB51E40E94911425966CAF7DAF8EAFB4
:102240009FAF25971A83098389EE91E09C838B8346
:102250008DE08D838E81807880688E83BE016F5B78
:102260007F4FCE0101960E94990B609140027091C0
:1022700041021092410210924002072E000C880B7E
:10228000990B0E94321429EE36E241EB50EC0E9489
:10229000F3152BED39EF4EEB5FE30E9491142AED1D
:1022A0003EEF4DEC5FE30E94911420E030E048ECFB
:1022B00052E40E9491146B017C0120E030E0A901FE
:1022C0000E949B1620E030E040E05FE387FD4DC2B6
:1022D000C701B6010E9487150E9465160E9432143C
:1022E00020E030E048EC52E40E94F31525966CAFF4
:1022F0007DAF8EAF9FAF25971A83098387EF91E05B
:102300009C838B8389E08D838E81807880688E8327
:10231000BE016F5B7F4FCE0101960E94990B6091C9
:102320003E0270913F0210923F0210923E02072E31
:10233000000C880B990B0E94321424E83DE04FE812
:102340005EE30E94911425966CAF7DAF8EAF9FAF78
:1023500025971A83098381E092E09C838B8388E030
:102360008D838E81807880688E83BE016F5B7F4F06
:10237000CE0101960E94990B80E10E9464018A308F
:1023800091050CF4F7C1883C91050CF4F6C1843F2B
:10239000A1E09A070CF4F4C1803293400CF0F3C131
:1023A0008BEA91E023969FAF8EAF23971A83098320
:1023B0008AE092E09C838B8385E08D838E81807898
:1023C00080688E83BE016F5B7F4FCE0101960E94B5
:1023D0003D0B8FE00E946401009709F4D7C1853A54
:1023E000E1E09E070CF4D5C1893092400CF0D4C1D5
:1023F0008EEB91E023969FAF8EAF23971A830983CC
:1024000080E192E09C838B838AE0F82EFD828E81AE
:10241000807880688E83BE016F5B7F4FCE0101960E
:102420000E943D0B81E10E946401BC01990F880B61
:10243000990B0E9432142AE038E240EA5BE30E94E2
:10244000911425966CAF7DAF8EAF9FAF25971A8301
:1024500009838BE192E09C838B838CE08D838E815A
:10246000807880688E83BE016F5B7F4FCE010196BE
:102470000E94990B82E10E946401BC01990F880BB4
:10248000990B0E9432142AE038E240EA5BE30E9492
:10249000911420E030E040EC5FE30E949114259617
:1024A0006CAF7DAF8EAF9FAF25971A83098388E20B
:1024B00092E09C838B83FD828E81807880688E83FE
:1024C000BE016F5B7F4FCE0101960E94990BD10137
:1024D00011961C921E9213961C921E92129715969C
:1024E0001C921E92149770E060E0C1010E94910559
:1024F000F10120813181811152C12115310519F07D
:10250000C9010E94D317D10111961C921E921596F3
:102510001C921E92149713961C921E921297C355EA
:10252000DF4F39822882CD5AD040C153DF4F198204
:102530001882CF5CD040D1018D919C91009711F011
:102540000E94D317F1011182108215821482138226
:10255000128284E2FE01E355FF4FDE01A757BF4F11
:1025600001900D928A95E1F784E2FE01E757FF4F53
:10257000DE01AB59BF4F01900D928A95E1F784E2DD
:10258000FE01EB59FF4FDE01AF5BBF4F01900D9293
:102590008A95E1F784E2FE01EF5BFF4FDE011196C1
:1025A00001900D928A95E1F71EA21DA2CE018F5BCC
:1025B0009F4F0E94B90518A70FA3CE018B599F4FBB
:1025C0000E94B905BE016F5F7F4FC8014A960E9405
:1025D000FC06CE0101960E94B905CE0187579F4F98
:1025E0000E94B905CE0183559F4F0E94B905D101C4
:1025F00014964D915C9115976D917C918FE492E0CA
:102600000E944C0342E050E063E372E08FE492E00A
:102610000E944C0360ED77E080E090E00E949B0117
:1026200060E088E00E94DC00F101808191810097E8
:1026300011F00E94D317D801ED90FC90F80163814E
:1026400074816115710509F4B2C0DB018D919C9113
:1026500094838383D701ED91FC910280F381E02D77
:10266000C7010995EBCF6091EC027091ED027627DE
:102670006727762790E080E00E9430142DEC3CEC38
:102680004CEC5DE30E94911477CB20E030E048E809
:1026900051E4C501B4010E948715E4CC20E030E08C
:1026A0004AEA52E4C701B6010E949B1618160CF0C4
:1026B000EFCC20E030E040EA52E4C501B4010E94D2
:1026C0009B1687FDE5CC20E030E04EEA52E4C501E0
:1026D000B4010E942B1418160CF4DACC20E030E080
:1026E0004AEA52E4C701B6010E9486152DEC3CEC83
:1026F0004CEC5DE30E9491146B017C01A5019401F7
:1027000060E070E08EEA92E40E9486152DEC3CECCD
:102710004CE45EE30E9491149B01AC01C701B60139
:102720000E9491149B01AC01C301B2010E94871564
:10273000ADCCC701B6010E9486150CCD2DEC3CEC4A
:102740004CE45DEBC501B4010E949B1618160CF415
:1027500067CDFFEFEF1AFF0A20E1E216F10409F05E
:1027600041CD60E070E0CB0167CDC701B6010E94AA
:102770008615B2CD82E991E015CE8EE991E012CEB8
:1027800085EA91E00FCE8FEA91E00CCE84EB91E0E8
:1027900031CE8AEB91E02ECE85EC91E02BCE1582E6
:1027A00014826AE771E0C9010E942219B8CEC08084
:1027B000D180B12CD80155966D917C915697579642
:1027C0008C915797B816D8F4B4E0BB9E70011124D1
:1027D000E60EF71EF701628173816115710541F004
:1027E000D601ED91FC910280F381E02DC60109959F
:1027F000F7011382128210821182B394DBCF5796B5
:102800001C9257978FEF59968C93C80105966817BD
:10281000790741F0D601ED91FC910280F381E02D22
:10282000C601099580E090E0892B09F4D2C90E9485
:10283000B603882309F4C9C90E940000C6C920E074
:1028400030E04AEA52E4C701B6010E949B1618160E
:102850000CF439CF1DCC0E946D1408F481E008956A
:10286000E89409C097FB3EF490958095709561952A
:102870007F4F8F4F9F4F9923A9F0F92F96E9BB27E0
:102880009395F695879577956795B795F111F8CF5C
:10289000FAF4BB0F11F460FF1BC06F5F7F4F8F4FC7
:1028A0009F4F16C0882311F096E911C0772321F0BD
:1028B0009EE8872F762F05C0662371F096E8862F55
:1028C00070E060E02AF09A95660F771F881FDAF7AC
:1028D000880F9695879597F90895990F0008550FD9
:1028E000AA0BE0E8FEEF16161706E807F907C0F096
:1028F00012161306E407F50798F0621B730B840B9E
:10290000950B39F40A2661F0232B242B252B21F477
:1029100008950A2609F4A140A6958FEF811D811D17
:1029200008950E94A4140C9415150E94071538F000
:102930000E940E1520F0952311F00C94FE140C94B7
:10294000041511240C9449150E94261570F3959FC7
:10295000C1F3950F50E0551F629FF001729FBB2796
:10296000F00DB11D639FAA27F00DB11DAA1F649F32
:102970006627B00DA11D661F829F2227B00DA11DE5
:10298000621F739FB00DA11D621F839FA00D611D6B
:10299000221F749F3327A00D611D231F849F600D8C
:1029A000211D822F762F6A2F11249F5750409AF0B5
:1029B000F1F088234AF0EE0FFF1FBB1F661F771F41
:1029C000881F91505040A9F79E3F510580F00C940C
:1029D000FE140C9449155F3FE4F3983ED4F38695BA
:1029E00077956795B795F795E7959F5FC1F7FE2BAC
:1029F000880F911D9695879597F9089597F99F6788
:102A000080E870E060E008959FEF80EC0895002476
:102A10000A941616170618060906089500240A9443
:102A200012161306140605060895092E0394000CC9
:102A300011F4882352F0BB0F40F4BF2B11F460FF58
:102A400004C06F5F7F4F8F4F9F4F089557FD905881
:102A5000440F551F59F05F3F71F04795880F97FB62
:102A6000991F61F09F3F79F087950895121613061C
:102A70001406551FF2CF4695F1DF08C0161617064B
:102A80001806991FF1CF8695710561050894089580
:102A9000E894BB2766277727CB0197F908952F92F3
:102AA0003F924F925F926F927F928F929F92AF92DE
:102AB000BF92CF92DF92EF92FF920F931F93CF932B
:102AC000DF93CDB7DEB7CA1BDB0B0FB6F894DEBFC2
:102AD0000FBECDBF09942A88398848885F846E84E8
:102AE0007D848C849B84AA84B984C884DF80EE8032
:102AF000FD800C811B81AA81B981CE0FD11D0FB63B
:102B0000F894DEBF0FBECDBFED0108955058BB272E
:102B1000AA270E949E150C9415150E94071538F0DF
:102B20000E940E1520F039F49F3F19F426F40C94FE
:102B300004150EF4E095E7FB0C94FE14E92F0E94B7
:102B4000261558F3BA17620773078407950720F014
:102B500079F4A6F50C9448150EF4E0950B2EBA2FD7
:102B6000A02D0B01B90190010C01CA01A001112493
:102B7000FF27591B99F0593F50F4503E68F11A163F
:102B8000F040A22F232F342F4427585FF3CF4695D0
:102B900037952795A795F0405395C9F77EF41F16F2
:102BA000BA0B620B730B840BBAF09150A1F0FF0FBC
:102BB000BB1F661F771F881FC2F70EC0BA0F621FA8
:102BC000731F841F48F4879577956795B795F79598
:102BD0009E3F08F0B0CF9395880F08F09927EE0F2D
:102BE0009795879508950E9407160C9415150E94D5
:102BF0000E1558F00E94071540F029F45F3F29F0A8
:102C00000C94FE1451110C9449150C9404150E9457
:102C1000261568F39923B1F3552391F3951B550BB2
:102C2000BB27AA2762177307840738F09F5F5F4F9F
:102C3000220F331F441FAA1FA9F335D00E2E3AF0DE
:102C4000E0E832D091505040E695001CCAF72BD0F6
:102C5000FE2F29D0660F771F881FBB1F2617370747
:102C60004807AB07B0E809F0BB0B802DBF01FF2779
:102C700093585F4F3AF09E3F510578F00C94FE1444
:102C80000C9449155F3FE4F3983ED4F3869577950D
:102C90006795B795F7959F5FC9F7880F911D969532
:102CA000879597F90895E1E0660F771F881FBB1F8E
:102CB000621773078407BA0720F0621B730B840B3B
:102CC000BA0BEE1F88F7E09508950E946C16689481
:102CD000B1110C94491508950E942E1588F09F5744
:102CE00098F0B92F9927B751B0F0E1F0660F771F30
:102CF000881F991F1AF0BA95C9F714C0B13091F026
:102D00000E944815B1E008950C944815672F782F5C
:102D10008827B85F39F0B93FCCF3869577956795EA
:102D2000B395D9F73EF490958095709561957F4F56
:102D30008F4F9F4F08950E946D1408F48FEF0895F0
:102D400019F416F40C9404150C94E6160E942E1532
:102D5000B8F39923C9F3B6F39F57550B87FF0E9429
:102D6000F4160024A0E640EA900180585695979505
:102D700028F4805C660F771F881F20F0261737071E
:102D8000480730F4621B730B840B202931294A2B2E
:102D9000A69517940794202531254A2758F7660FE2
:102DA000771F881F20F026173707480730F4620B7B
:102DB000730B840B200D311D411DA09581F7B901C6
:102DC000842F9158880F9695879508959F3F31F0ED
:102DD000915020F4879577956795B795880F911D49
:102DE0009695879597F9089591505040660F771FF3
:102DF000881FD2F70895AA1BBB1B51E107C0AA1F69
:102E0000BB1FA617B70710F0A61BB70B881F991F8B
:102E10005A95A9F780959095BC01CD010895A1E23E
:102E20001A2EAA1BBB1BFD010DC0AA1FBB1FEE1F44
:102E3000FF1FA217B307E407F50720F0A21BB30B8F
:102E4000E40BF50B661F771F881F991F1A9469F70B
:102E500060957095809590959B01AC01BD01CF0167
:102E60000895EE0FFF1F0590F491E02D09940F9344
:102E70001F93CF93DF938230910510F482E090E0AE
:102E8000E0910103F091020330E020E0B0E0A0E027
:102E9000309799F42115310509F44AC0281B390BE4
:102EA00024303105D8F58A819B816115710589F13E
:102EB000FB0193838283FE0111C040815181028115
:102EC000138148175907E0F04817590799F41097EC
:102ED00061F012960C93129713961C933296CF01C1
:102EE000DF91CF911F910F910895009301031093EB
:102EF0000203F4CF2115310551F04217530738F082
:102F0000A901DB019A01BD01DF01F801C1CFEF0189
:102F1000F9CF9093020380930103CDCFFE01E20F1E
:102F2000F31F819391932250310939832883D7CF9E
:102F30002091FF0230910003232B41F420910801DE
:102F400030910901309300032093FF022091060184
:102F5000309107012115310541F42DB73EB740915D
:102F60000A0150910B01241B350BE091FF02F091F7
:102F70000003E217F307A0F42E1B3F0B28173907B5
:102F800078F0AC014E5F5F4F2417350748F04E0FC5
:102F90005F1F509300034093FF02819391939FCF53
:102FA000F0E0E0E09CCFCF93DF930097E9F0FC01E5
:102FB000329713821282A0910103B0910203ED01B6
:102FC00030E020E01097A1F420813181820F931F1F
:102FD0002091FF02309100032817390709F061C0E2
:102FE000F0930003E093FF02DF91CF910895EA018F
:102FF000CE17DF07E8F54A815B819E014115510537
:10300000B1F7E901FB83EA8349915991C40FD51FB8
:10301000EC17FD0761F4808191810296840F951F62
:10302000E90199838883828193819B838A83F0E07D
:10303000E0E012968D919C9113970097B9F52D9130
:103040003C911197CD010296820F931F2091FF02B0
:10305000309100032817390739F6309751F510924F
:10306000020310920103B0930003A093FF02BCCFB0
:10307000D383C28340815181840F951FC817D9071C
:1030800061F44E5F5F4F88819981480F591F5183CA
:1030900040838A819B81938382832115310509F0C6
:1030A000B0CFF0930203E09301039ECFFD01DC015A
:1030B000C0CF13821282D7CFB0E0A0E0E2E6F8E101
:1030C0000C9451158C01009751F4CB010E943717D5
:1030D0008C01C801CDB7DEB7E0E10C946D15FC01A1
:1030E000E60FF71F9C0122503109E217F30708F49D
:1030F0009DC0D901CD91DC911197C617D70798F0E3
:10310000C530D10530F3CE0104978617970708F331
:10311000C61BD70B2297C193D1936D937C93CF019C
:103120000E94D317D6CF5B01AC1ABD0A4C018C0E9E
:103130009D1EA0910103B0910203512C412CF12C52
:10314000E12C109731F58091FF02909100038815D2
:10315000990509F05CC04616570608F058C08091E2
:10316000060190910701009741F48DB79EB74091F9
:103170000A0150910B01841B950BE817F90708F021
:1031800055C0F0930003E093FF02F901718360835F
:10319000A0CF8D919C91119712966C9012971396D7
:1031A0007C901397A815B90559F56C0142E0C40E3F
:1031B000D11CCA14DB0420F1AC014A195B09DA0105
:1031C0001296159780F06282738251834083D901F1
:1031D0006D937C93E114F10471F0D7011396FC9385
:1031E000EE93129776CF22968C0F9D1FF901918353
:1031F0008083F301EFCFF0930203E093010369CFE3
:103200004816590608F42C017D01D3019ACFCB0151
:103210000E9437177C01009749F0AE01B8010E9467
:103220001919C8010E94D317870153CF10E000E09D
:1032300050CFFB01DC0102C001900D924150504083
:10324000D8F70895FB01DC0101900D920020E1F711
:063250000895F894FFCF81
:103256004B034B0350010000030380008FC27540EF
:10326600A470FD3F0000104085EBD13E6666E63E49
:103276000AD7A33E6666663F52B81E3F3333B33F56
:10328600EC51983FB81E45401F853B400AD79340F6
:10329600AE4781405C8F8A401F855B40000000007E
:1032A600CC0B8E05C40900000000EC034C03790327
:1032B6003904AA0388039C032F2F272722225C5C4C
:1032C6006208660C6E0A720D7409005C7530303047
:1032D60030006E756C6C00747275650066616C7397
:1032E6006500566572792062726967687400427279
:1032F60069676874004C696768740044696D0044C6
:1033060061726B00456D707479004C6F77004D6586
:103316006469756D00486967680074656D706572EB
:1033260061747572650068756D69646974790068A1
:10333600656174496E6465780077696E6444697284
:10334600656374696F6E0077696E64537065656452
:10335600007261696E46616C6C006C696768740026
:1033660077617465724C6576656C0062617474652C
:1033760072794C6576656C00736F6C617250616E24
:06338600656C000D0A0059
:00000001FF
